:020000040800F2
:1000000000000320DD1D0008111D0008131D00085D
:10001000151D0008171D0008191D0008000000002C
:100020000000000000000000000000001B1D000890
:100030001D1D0008000000001F1D0008211D0008F4
:10004000351E0008351E0008351E0008351E000844
:10005000351E0008351E0008351E0008351E000834
:10006000351E0008351E0008351E0008351E000824
:10007000351E0008351E0008351E0008351E000814
:10008000351E0008351E0008351E0008351E000804
:10009000351E0008351E0008351E0008351E0008F4
:1000A000351E0008351E0008351E0008351E0008E4
:1000B000351E0008351E0008351E0008351E0008D4
:1000C000351E0008351E0008351E0008351E0008C4
:1000D000351E0008351E0008351E0008351E0008B4
:1000E000351E0008351E0008351E0008351E0008A4
:1000F000351E0008351E0008351E0008351E000894
:10010000351E0008351E0008351E0008351E000883
:10011000351E0008351E0008351E0008351E000873
:10012000351E0008351E0008351E0008351E000863
:0C013000351E0008351E0008351E0008B2
:10013C0008B5064B1A783AB9054A1AB10548AFF317
:10014C000080024B01221A7008BD00BF1400002071
:10015C0000000000901E000808B5034B1BB10349BA
:10016C000348AFF3008008BD000000001800002019
:10017C00901E00082DE9F0438BB005AD00240594CA
:10018C0006940794089409944FF0B043DA6C42F04B
:10019C000402DA64DA6C02F004020492049ADA6C57
:1001AC0042F00202DA64DA6C02F002020392039A61
:1001BC00DA6C42F00102DA64DA6C02F001020292AB
:1001CC00029ADA6C42F00802DA64DB6C03F0080382
:1001DC000193019BDFF86C9022464FF48051484606
:1001EC0000F0BAFADFF8608022460321404600F0A6
:1001FC00B3FA134F22462021384600F0ADFA4FF4E3
:10020C008053059301260696079408942946484680
:10021C0000F0C8F903230593069607940894294621
:10022C00404600F0BFF920230593069607940894E6
:10023C002946384600F0B6F90BB0BDE8F08300BF94
:10024C000004004800080048000C004872B6FEE7A5
:10025C0008B51148114B0360114B436000238360B8
:10026C000122C260036143618361C361036200F0D8
:10027C0078FA50B90146084800F0D7FA38B9014667
:10028C00054800F0FFFA20B908BDFFF7DFFFFFF7C4
:10029C00DDFFFFF7DBFF00BF50030020005C0040D8
:1002AC00B57DB11008B50948094B036008230371EB
:1002BC0002234371C3710023037243728372C372AE
:1002CC0000F0F2FB00B908BDFFF7C0FF30000020C2
:1002DC000068004008B50948094B0360FF234360E0
:1002EC00012282600023C36002614361836100F0DC
:1002FC008FFC00B908BDFFF7A9FF00BF0C0300205D
:10030C00001000A030B59BB008AD48220021284653
:10031C0001F08BFD00240194029403940494059441
:10032C000694079400F032FC4FF0B042D2F89030B3
:10033C0023F0180343F01003C2F8903002F58062EA
:10034C00136823F4C06343F400731360136803F45D
:10035C00C0630093009B272308934FF480330993C9
:10036C0001230A934FF480720B920F9340220C924C
:10037C00109460221192022213921493159420234C
:10038C0016934FF4003317934FF0005319934FF01B
:10039C0000731893284600F087FD88B96F230193EA
:1003AC0003210291039004900590802206920790FD
:1003BC0001A801F007F928B901F09DFC1BB030BD74
:1003CC00FFF744FFFFF742FF10B594B05022002115
:1003DC00684601F02AFD4FF4405300934FF440431C
:1003EC00119310231393684601F003FB08B914B062
:1003FC0010BDFFF72BFF08B500F036F8FFF782FFB2
:10040C00FFF7E2FFFFF7B6FEFFF722FFFFF74AFF09
:10041C00FFF760FFFEE70000114B1B780BB90120C2
:10042C00704710B5044600F02FFD0D4B1A784FF4B1
:10043C007A73B3FBF2F3B0FBF3F000F09FF868B9FA
:10044C000F2C01D901200AE0024621464FF0FF3063
:10045C0000F084F8034B1C60002000E0012010BD6C
:10046C00080000200C00002010B50A4A136843F461
:10047C0080731360032000F05FF80F20FFF7CCFFB0
:10048C0018B101231C46204610BD044600F025FA85
:10049C00F9E700BF00400058034B1B78034A116872
:1004AC000B441360704700BF08000020A403002019
:1004BC00014B1868704700BFA4030020014B18685B
:1004CC00704700BF0C000020002808DB0901C9B2EE
:1004DC0000F1604000F5614080F80013704700F0B7
:1004EC000F000901C9B2014B1954704714ED00E01B
:1004FC0000B500F00700A0F1030CBCF1040F07D805
:10050C00C0F1070E0430062806D84FF0000C03E0AB
:10051C004FF0040E4FF0000C4FF0FF3303FA0EF0C7
:10052C0021EA000101FA0CF103FA0CF322EA0302AE
:10053C0041EA020000BD0000074AD36823F4E063DF
:10054C001B041B0C000200F4E060034343F0BF6388
:10055C0043F40033D360704700ED00E010B504465F
:10056C00054BD868C0F30220FFF7C2FF01462046B6
:10057C00FFF7AAFF10BD00BF00ED00E00138B0F19D
:10058C00807F0BD24FF0E0235861054AF02182F8AE
:10059C0023100020986107221A61704701207047D0
:1005AC0000ED00E070B58646002367E0DEF80840F9
:1005BC005D000320A84024EA0004C868A84020433A
:1005CC00CEF80800DEF8044024EA0C044868C0F3B6
:1005DC00001098402043CEF8040060E0DC0808349A
:1005EC005EF8240003F00705AD004FF00F0C0CFA79
:1005FC0005FC20EA0C0C0869A84040EA0C004EF8F7
:10060C00240062E0042000E0002000FA0CF02843F3
:10061C0002344E4D45F824004D480468D04324EA7A
:10062C0002054E6816F4801F01D042EA0405484CBE
:10063C002560646800EA04054E6816F4001F01D0BA
:10064C0042EA0405424C6560D4F8804000EA040597
:10065C004E6816F4803F01D042EA04053C4CC4F8C5
:10066C008050D4F8844020404D6815F4003F01D0F0
:10067C0042EA0400364AC2F8840001330A6832FAAE
:10068C0003F061D04FF0010C0CFA03FC1CEA0202DF
:10069C00F3D0486800F003000138012886D9486877
:1006AC0000F0030003280BD0DEF80C405D000320A3
:1006BC00A84024EA00048868A8402043CEF80C0027
:1006CC00486800F00300022888D0DEF800005C00C7
:1006DC004FF0030C0CFA04FC20EA0C0C486800F0F8
:1006EC000300A04040EA0C00CEF80000486810F46B
:1006FC00403FC2D09C08A51C144850F8255003F06C
:10070C00030C4FEA8C0C0F2000FA0CF025EA0005C4
:10071C00BEF1904F3FF478AF0E4886450ED000F5F1
:10072C00806086450CD000F5806086450AD000F5C7
:10073C00806086453FF466AF072066E7012064E7DA
:10074C00022062E7032060E770BD00BF000001409B
:10075C0000080058000400480AB1816170478162AA
:10076C00704700285FD010B5044690F84130002B3C
:10077C0048D0242384F841302268136823F0010305
:10078C0013606368226823F07063136122689368B6
:10079C0023F400439360E368012B38D0A3682268EC
:1007AC0043F404439360E368022B36D02268536809
:1007BC0023F4006353602268536843F0007343F4DE
:1007CC00004353602268D36823F40043D360236949
:1007DC0062691343A169226843EA0123D360E36988
:1007EC00216A22680B4313602268136843F00103EB
:1007FC00136000206064202384F84130206384F867
:10080C00420010BD80F8403000F06CF8B1E7A368EE
:10081C00226843F400439360C5E72268536843F4AD
:10082C0000635360C7E701207047034690F84120EE
:10083C00202A23D190F84020012A21D0012280F8CF
:10084C004020242280F841200068026822F0010236
:10085C0002601868026822F480520260186802680C
:10086C000A43026019680A6842F001020A602022F9
:10087C0083F84120002083F8400070470220704725
:10088C0002207047034690F84120202A21D190F88D
:10089C004020012A1FD0012280F84020242280F819
:1008AC0041200068026822F00102026018680268A8
:1008BC0022F4706242EA0122026019680A6842F06E
:1008CC0001020A60202283F84120002083F84000B6
:1008DC007047022070470220704708B500F066F997
:1008EC0008BD000010B59CB004460021179118916A
:1008FC0019911A911B91502203A801F096FA2268C3
:10090C00194B9A4201D01CB010BD082303934FF42D
:10091C0040130C9303A801F06CF810BB4FF0B044DB
:10092C00E36C43F00203E364E36C03F00203029311
:10093C00029B4FF4C043179312231893002319936F
:10094C001A9304231B9317A90848FFF72BFEA36DDA
:10095C0043F40003A365A36D03F400030193019B0F
:10096C00D1E7FFF773FCD9E7005C004000040048B6
:10097C0030B589B000230393049305930693079332
:10098C0002681D4B9A4201D009B030BD4FF0B04304
:10099C001A6D42F480721A651A6D02F4807202921A
:1009AC00029ADA6C42F00202DA64DA6C02F00202A9
:1009BC000192019ADA6C42F00102DA64DB6C03F00A
:1009CC0001030093009B4FF440730393022404949F
:1009DC000A25079503A90948FFF7E4FDCC230393E7
:1009EC000494002305930693079503A94FF09040B8
:1009FC00FFF7D8FDC8E700BF001000A000040048B6
:100A0C0010B59CB0044600211791189119911A91B8
:100A1C001B91502203A801F008FA2268214B9A423C
:100A2C0001D01CB010BD4FF48073039318230493B2
:100A3C004FF4003305934FF0007306934FF00053BF
:100A4C0007934FF0807308934FF08063109303A8C3
:100A5C0000F0CFFF18BB4FF0B044E36C43F0010340
:100A6C00E364E36C03F001030293029B4FF4C05365
:100A7C00179302231893002319931A930A231B9399
:100A8C0017A94FF09040FFF78DFDA36D43F08063E5
:100A9C00A365A36D03F080630193019BC1E7FFF78E
:100AAC00D5FBD8E700680040002856D010B50446A6
:100ABC0090F891323BB1032384F89132206801F015
:100ACC002DF9002315E080F89032FFF799FFF2E73B
:100ADC0003EB830204EBC202012151741374002155
:100AEC00D17411625162013303EB8302D200A15025
:100AFC00DBB220799842EBD8002316E003EB83029B
:100B0C0004EBC202002182F8511182F8503182F8B4
:100B1C005311C2F86011C2F8641103EB830204EBA9
:100B2C00C202C2F868110133DBB29842E6D8234600
:100B3C0053F8040B93E8060001F0FBF80023237331
:100B4C00012384F89132A37A012B01D0002010BD2F
:100B5C00204600F004F80020F9E701207047034616
:100B6C0002680121C0F8D012002083F8C802B2F844
:100B7C0054309BB20B43A2F85430B2F854309BB2B1
:100B8C0043F00203A2F8543070470000024A136885
:100B9C0043F480731360704700040058024B1868CC
:100BAC0000F4C060704700BF00040058024A53684C
:100BBC0043F4806353607047000400582DE9F04102
:100BCC0004460E4615469846069F23689B6833429A
:100BDC0014BF4FF0010C4FF0000CAC4513D0B7F123
:100BEC00FF3FF2D0FFF764FC4346C01AB84201D86D
:100BFC00002FEAD1042384F83930E36B43F001036E
:100C0C00E363012000E00020BDE8F081016470473F
:100C1C0030B583B00446FFF74BFC002C48D005469A
:100C2C0094F83930002B38D023681A6822F470629B
:100C3C00A168013942EA01221A60236C00932B4609
:100C4C00002220212046FFF7B9FF08BB21680B6862
:100C5C0023F07F4323F01003E268656842EA0562E3
:100C6C0013430B6021684A68124B13406269256973
:100C7C0042EA0542A5692A4313434B602268136874
:100C8C0043F0010313600023E363012384F839303C
:100C9C00002384F8383003B030BD84F83830204657
:100CAC00FFF766FE41F288312046FFF7AFFFBBE746
:100CBC000120F0E7FEF8E0FF30B58DB004468E461B
:100CCC00DFF8B0C09CE80F000CAD05E90F0005ABD8
:100CDC000CF1100207CA83E8070001AD0CF11C0CE3
:100CEC009CE80F0085E80F00BEF5007F07D00023BD
:100CFC0014E00CAA02EB830353F82C5C1EE00023D7
:100D0C00032B08D80CAA02EB830252F8102CA24237
:100D1C00EFD20133F4E7002510E00133022B0CD89D
:100D2C000CAA02EB830252F81C2CA242F5D30CAA9B
:100D3C0002EB830353F82C5C00E000250C4A13688B
:100D4C0023F007032B431360FFF7B2FB0446084B59
:100D5C001B6803F00703AB4206D0FFF7A9FB001B8F
:100D6C000228F4D9032000E000200DB030BD00BFF4
:100D7C0000400058A81E000810B5B02818D90F4B19
:100D8C00DB6A4FF0B042D2F8082102F00F020C4996
:100D9C0051F82220B3FBF2F30A4AA2FB03239B0C6B
:100DAC001C46FFF7FBFE01462046FFF785FF10BDF2
:100DBC00C0F30310014B53F82030E2E7D41E0008B7
:100DCC00141F000883DE1B434FF0B0439B6813F0E5
:100DDC000C030DD14FF0B0431B6803F0F003B02BA4
:100DEC0004D81B09254A52F823007047B023F8E7B2
:100DFC00042B3ED0082B10D04FF0B043DB6803F02F
:100E0C000303022B31D0032B0FD14FF0B0431B68DF
:100E1C0013F4801F2BD11A4812E04FF0B0431B681B
:100E2C0013F4801F27D0174870474FF0B0431B684E
:100E3C0003F0F003B02B16D81B09104A52F823000C
:100E4C004FF0B042D368C3F3062303FB00F0D36822
:100E5C00C3F302130133B0FBF3F0D3685B0F013320
:100E6C00B0FBF3F07047B023E6E70648E8E7054827
:100E7C00E6E7044870470248704700BFD41E0008DC
:100E8C000048E8010024F40008B5FFF79DFF4FF07F
:100E9C00B0439B68C3F30313024A52F82330B0FBF0
:100EAC00F3F008BD141F0008002800F0758338B556
:100EBC000446036813F0200F2DD04FF0B042936816
:100ECC00D26802F0030213F00C0358D00C2B54D050
:100EDC00E369002B00F0A0804FF0B042136843F0A0
:100EEC0001031360FFF7E4FA05464FF0B0431B68AB
:100EFC0013F0020F00F08880636A4FF0B042116863
:100F0C0021F0F0010B431360216A536823F47F43F3
:100F1C0043EA01235360236813F0010F00F09A8019
:100F2C004FF0B042936803F00C03D26802F0030256
:100F3C00082B00F08B800C2B00F085806368B3F5D8
:100F4C00803F00F0B0804FF0B042136823F4803340
:100F5C0013606368002B00F0AD80FFF7A9FA05461B
:100F6C004FF0B0431B6813F4003F73D1FFF7A0FAA6
:100F7C00401B6428F4D9032019E3012AA8D1E369A2
:100F8C00002B00F00B83606A4FF0B0431B6803F03A
:100F9C00F003B02B21D8984221D9FFF7EDFE0028A1
:100FAC0040F0FE82636A4FF0B042116821F0F0010C
:100FBC000B431360216A536823F47F4343EA0123F4
:100FCC005360FFF761FFBD4B1860BD4B1868FFF70E
:100FDC0023FA00289FD00120E9E2B023DBE74FF091
:100FEC00B042136823F0F00318431060216A536871
:100FFC0023F47F4343EA01235360606AFFF7BCFE8E
:10100C000028DED00120D2E2FFF752FA401B022862
:10101C007FF66BAF0320CAE24FF0B042136823F0A7
:10102C0001031360FFF744FA05464FF0B0431B6809
:10103C0013F0020F3FF46FAFFFF73AFA401B022890
:10104C00F3D90320B3E2032A7FF478AF6368002B53
:10105C0000F0A882236813F0020F54D04FF0B04276
:10106C00936803F00C03D26802F00302042B33D014
:10107C000C2B2FD0E368002B74D04FF0B0421368C8
:10108C0043F480731360FFF713FA05464FF0B04337
:10109C001B6813F4806F2DD1FFF70AFA401B02284E
:1010AC00F4D9032083E24FF0B042136843F4803349
:1010BC0013604EE7FFF7FCF905464FF0B0431B6891
:1010CC0013F4003FC6D0FFF7F3F9401B6428F4D9A2
:1010DC0003206CE2022ACDD1E368002B00F064827D
:1010EC0021694FF0B042536823F0FE4343EA016399
:1010FC00536008E021694FF0B042536823F0FE437F
:10110C0043EA01635360236813F0080F03D113F013
:10111C00100F00F0DE806269002A00F0A38013F04B
:10112C00100F70D04FF0B043D3F8943013F0020F7F
:10113C002ED14FF0B042D2F8943043F00103C2F8F4
:10114C009430FFF7B5F905464FF0B043D3F894301F
:10115C0013F0020F1CD1FFF7ABF9401B0228F3D997
:10116C00032024E24FF0B042136823F48073136021
:10117C00FFF79EF905464FF0B0431B6813F4806FE0
:10118C00C1D0FFF795F9401B0228F4D903200EE2D9
:10119C004FF0B042D2F8943043F00403C2F89430CC
:1011AC00FFF786F905464FF0B043D3F8943013F0AF
:1011BC00080F06D1FFF77CF9401B0328F3D9032055
:1011CC00F5E1A1694FF0B042D2F8943023F470638A
:1011DC0043EA0123C2F89430D2F8943023F001038F
:1011EC00C2F89430FFF764F905464FF0B043D3F8DA
:1011FC00943013F0020F6CD0FFF75AF9401B022801
:10120C00F3D90320D3E14FF0B042D2F8943043F03D
:10121C000103C2F89430FFF74BF905464FF0B04389
:10122C00D3F8943013F0020F06D1FFF741F9401BAD
:10123C000228F3D90320BAE14FF0B042D2F894302F
:10124C0023F00403C2F894304FF0B043D3F8943039
:10125C0013F0080F3DD0FFF72BF9401B0328F3D9EF
:10126C000320A4E14FF0B042D2F8943023F00403F1
:10127C00C2F89430FFF71CF905464FF0B043D3F891
:10128C00943013F0080F1DD14FF0B042D2F89430C7
:10129C0023F00103C2F89430FFF70AF905464FF02A
:1012AC00B043D3F8943013F0020F12D0FFF700F9CB
:1012BC00401B0228F3D9032079E100BF1000002065
:1012CC000C000020FFF7F4F8401B0328D5D90320AD
:1012DC006DE1236813F0040F68D0B64B1B6813F450
:1012EC00807F27D0A368012B35D0052B3CD04FF045
:1012FC00B043D3F8902022F00102C3F89020D3F829
:10130C00902022F00402C3F89020A368DBB3FFF70F
:10131C00CFF805464FF0B043D3F8903013F0020FDE
:10132C0044D1FFF7C5F8401B41F288339842F1D9FC
:10133C0003203CE1FFF72AFCFFF7BAF805469D4B6A
:10134C001B6813F4807FCDD1FFF7B2F8401B022845
:10135C00F5D903202BE14FF0B042D2F8903043F096
:10136C000103C2F89030D0E74FF0B043D3F890208F
:10137C0042F00402C3F89020D3F8902042F001020E
:10138C00C3F89020C1E7FFF793F805464FF0B04340
:10139C00D3F8903013F0020F08D0FFF789F8401BF8
:1013AC0041F288339842F1D9032000E1236813F00D
:1013BC00400F33D0A36AC3B14FF0B042D2F898308B
:1013CC0043F00103C2F89830FFF772F805464FF06E
:1013DC00B043D3F8983013F0020F1FD1FFF768F821
:1013EC00401B0228F3D90320E1E04FF0B042D2F8C1
:1013FC00983023F00103C2F89830FFF759F80546EE
:10140C004FF0B043D3F8983013F0020F06D0FFF72B
:10141C004FF8401B0228F3D90320C8E0E36A002BE5
:10142C0000F0C4804FF0B042916801F00C01D2681A
:10143C00022B19D00C2900F0C3804FF0B042136876
:10144C0023F080731360FFF733F804464FF0B0437A
:10145C001B6813F0007F00F09780FFF729F8001B42
:10146C000228F3D90320A2E002F00303206B83428D
:10147C000AD00C2900F09C804FF0B0431B6813F08D
:10148C00806F22D0012092E002F07003606B8342E7
:10149C00EFD1C2F30623A06B8342EAD102F4781396
:1014AC00E06B8342E5D102F06063206C8342E0D1B3
:1014BC0002F06042636C9A42DBD14FF0B0431B6880
:1014CC0013F0007F44D0002071E04FF0B04213685D
:1014DC0023F080731360FEF7EBFF05464FF0B0432B
:1014EC001B6813F0007F06D0FEF7E2FF401B0228BA
:1014FC00F4D903205BE04FF0B042D3682E49194079
:10150C00236B606B0343A06B43EA0023E06B034344
:10151C00206C0343606C03431943D160136843F0A0
:10152C0080731360D36843F08053D360FEF7C0FF21
:10153C0004464FF0B0431B6813F0007F06D1FEF752
:10154C00B7FF001B0228F4D9032030E000202EE066
:10155C004FF0B0431A6842F080721A60DA6842F0B9
:10156C008052DA60FEF7A4FF04464FF0B0431B68CC
:10157C0013F0007F06D1FEF79BFF031B022BF4D95F
:10158C00032014E0002012E04FF0B042D1680B4B66
:10159C000B40D36000200AE001207047012006E0D8
:1015AC00012004E0012002E0012000E0184638BDD3
:1015BC000120FCE7000400588C80C111FCFFFEEEFA
:1015CC000120F4E7002800F0278170B50C46054691
:1015DC00934B1B6803F007038B422DD32B6813F03E
:1015EC00020F3FD12B6813F0200F53D12B6813F04F
:1015FC00400F6AD12B6813F0040F40F083802B68E6
:10160C0013F0080F40F097802B6813F0010F00F0D7
:10161C00DE806B68022B00F0A880032B00F0AD80FD
:10162C00002B40F0B2804FF0B042126812F0020F63
:10163C0040F0B1800120EEE0794A136823F00703F3
:10164C000B431360FEF734FF0646754B1B6803F023
:10165C000703A342C2D0FEF72BFF801B0228F4D94C
:10166C000320D8E0AB684FF0B0418A6822F0F0025A
:10167C0013438B60FEF71CFF06464FF0B0439B688C
:10168C0013F4803FAED1FEF713FF801B0228F4D970
:10169C000320C0E06B694FF0B041D1F8082122F073
:1016AC00F0021343C1F80831FEF702FF06464FF073
:1016BC00B043D3F8083113F4003F97D1FEF7F8FE8E
:1016CC00801B0228F3D90320A5E0A9694FF0B04292
:1016DC00D2F8083123F00F0343EA1113C2F8083192
:1016EC00FEF7E6FE06464FF0B043D3F8083113F48C
:1016FC00803F7FF47FAFFEF7DBFE801B0228F2D920
:10170C00032088E0EB684FF0B0418A6822F4E06275
:10171C0013438B60FEF7CCFE06464FF0B0439B683C
:10172C0013F4003F7FF46BAFFEF7C2FE801B022860
:10173C00F3D903206FE029694FF0B042936823F48A
:10174C00605343EAC1039360FEF7B2FE06464FF0C6
:10175C00B0439B6813F4802F7FF456AFFEF7A8FEBE
:10176C00801B0228F3D9032055E04FF0B0421268D9
:10177C0012F4003F0FD101204DE04FF0B04212683F
:10178C0012F0007F07D1012045E04FF0B042126803
:10179C0012F4806F42D04FF0B0418A6822F00302FD
:1017AC0013438B60FEF784FE06464FF0B0439B68F4
:1017BC0003F00C036A68B3EB820F08D0FEF778FED7
:1017CC00801B41F288339842EFD9032023E0144B5D
:1017DC001B6803F00703A34215D9114A136823F0C1
:1017EC00070323431360FEF763FE05460C4B1B688F
:1017FC0003F00703A34206D0FEF75AFE401B022853
:10180C00F4D9032007E0FFF73FFB064B1860FEF707
:10181C0055FEFEF701FE70BD012070470120FAE76E
:10182C0000400058100000204FF0B041D1F8883033
:10183C00020902F47F2223EA0203000100F47F2054
:10184C000343C1F88830704770B505464FF0B0427D
:10185C00136823F080631360FEF72AFE04464FF0F2
:10186C00B0431B6813F0006F06D0FEF721FE001B7F
:10187C000228F4D9032400E000240CB1204670BDEA
:10188C004FF0B0431A6922F4FE42296842EA012261
:10189C001A611A6922F4781269680A431A611A6883
:1018AC0042F080621A60FEF703FE06464FF0B0432A
:1018BC001B6813F0006F05D1FEF7FAFD801B0228A0
:1018CC00F4D90324002CD9D14FF0B0421369296903
:1018DC000B431361D2E770B505464FF0B042136865
:1018EC0023F080631360FEF7E3FD04464FF0B04332
:1018FC001B6813F0006F06D0FEF7DAFD001B022800
:10190C00F4D9032400E000240CB1204670BD4FF044
:10191C00B0431A6922F4FE42296842EA01221A6194
:10192C001A6922F06062A9680A431A611A6842F0C7
:10193C0080621A60FEF7BCFD06464FF0B0431B6890
:10194C0013F0006F05D1FEF7B3FD801B0228F4D90C
:10195C000324002CD9D14FF0B042136929690B43F1
:10196C001361D2E770B505464FF0B042136823F00F
:10197C0080631360FEF79CFD04464FF0B0431B6878
:10198C0013F0006F06D0FEF793FD001B0228F4D96C
:10199C00032400E000240CB1204670BD4FF0B0438E
:1019AC001A6922F4FE42296842EA01221A611A6974
:1019BC0022F06042E9680A431A611A6842F08062B8
:1019CC001A60FEF775FD06464FF0B0431B6813F026
:1019DC00006F05D1FEF76CFD801B0228F4D903249F
:1019EC00002CD9D14FF0B042136929690B43136114
:1019FC00D2E770B50446036813F0400F35D0036B83
:101A0C00B3F5800F16D00BD833B90430FFF71CFF99
:101A1C000646B8B105462BE001231D461E4627E0BD
:101A2C00B3F5000F1BD0B3F5400F1BD001231D469F
:101A3C001E461DE04FF0B042D36843F48033D360B0
:101A4C0000231E46236B4FF0B041D1F8882022F4BE
:101A5C0040021343C1F8883000231D4608E00023E0
:101A6C001E46EFE700231E46ECE700231D461E46EC
:101A7C00236813F4006F0BD04FF0B043D3F89030C1
:101A8C0003F440731D46236CAB4240F0B7803546DF
:101A9C00236813F0010F09D0A3694FF0B041D1F8BE
:101AAC00882022F003021343C1F88830236813F016
:101ABC00020F09D0E3694FF0B041D1F8882022F42D
:101ACC0040621343C1F88830236813F0100F0CD018
:101ADC00A16A4FF0B042D2F88830080C000423EA17
:101AEC00000343EA0143C2F88830236813F0200F47
:101AFC000CD0E16A4FF0B042D2F88830080C0004E8
:101B0C0023EA000343EA0143C2F88830236813F048
:101B1C00040F40F0B580236813F0080F40F0B48038
:101B2C00236813F4807F13D0636B4FF0B041D1F86E
:101B3C00882022F040621343C1F88830636BB3F104
:101B4C00006F00F0A580636BB3F1806F00F0A5808F
:101B5C00236813F4007F17D0A36BB3F1804F05D02B
:101B6C00B3F1004F02D0002B40F09F804FF0B041FA
:101B7C00D1F8882022F040421343C1F88830A36B7F
:101B8C00B3F1C05F00F0A380236813F4806F13D00F
:101B9C00E36B4FF0B041D1F8882022F04052134350
:101BAC00C1F88830E36BB3F1005F00F09780E36B12
:101BBC00B3F1805F00F09780236813F4805F09D045
:101BCC00636C4FF0B041D1F8942022F4404213439F
:101BDC00C1F89430236813F4005F0DD0E26C4FF021
:101BEC00B043596A21F030010A435A62A26C596A17
:101BFC0021F003010A435A62284670BDFEF7C6FF66
:101C0C005DB9236C4FF0B041D1F8902022F44072B2
:101C1C001343C1F8903035463AE74FF0B043D3F850
:101C2C009020D3F8901041F48031C3F89010D3F881
:101C3C00901021F48031C3F8901022F44072216C82
:101C4C000A43C3F89020D3F8903013F0010F13D04F
:101C5C00FEF72EFC05464FF0B043D3F8903013F04E
:101C6C00020F0BD1FEF724FC401B41F28833984243
:101C7C00F1D903231D460BE7354609E7354607E73F
:101C8C00206AFFF7D1FD46E7606AFFF7CDFD47E715
:101C9C00CB6843F08073CB6055E7201DFFF71BFE2C
:101CAC0000283FF455AF054652E723F080534FF020
:101CBC00B042D2F8881021F04041C2F88810D2F816
:101CCC00881021F040610B43C2F8883057E74FF081
:101CDC00B042D36843F08073D36055E7CB6843F4CC
:101CEC008033CB6063E7201DFFF73CFE00283FF4F8
:101CFC0063AF054660E74FF0B042136843F004034E
:101D0C0013607047FEE7FEE7FEE7FEE7FEE770476D
:101D1C007047704708B5FEF7BFFB08BDB0F8403000
:101D2C009BB223F47E535B045B0CA0F84030002084
:101D3C00704782B0034602A800E906000122A3F80E
:101D4C0040200020A3F84000A3F84400A3F8500062
:101D5C0002B07047164AD2F8883043F47003C2F8C8
:101D6C0088304FF0B0431A6842F001021A604FF409
:101D7C00E0229A601968A2F1A262A2F205120A404E
:101D8C001A60D3F8942022F00502C3F89420D3F8FB
:101D9C00982022F00102C3F89820064ADA601A61F2
:101DAC001A6822F480221A6000229A61704700BFE0
:101DBC0000ED00E000100422D458C4500433C418C1
:101DCC008C42F9D37047036004308842FBD37047D0
:101DDC000C488546FFF7BEFF0B480C490C4A002304
:101DEC00FFF7EDFF0B480C490C4A0023FFF7E7FF08
:101DFC000B480C490023FFF7E8FF00F01FF8FEF733
:101E0C00FAFAFEE70000032008000020140000206E
:101E1C005C1F00080000032000000320681F00085E
:101E2C0014000020A8030020FEE70244034693425E
:101E3C0000D1704703F8011BF9E7000070B50D4B9A
:101E4C000D4C00261D1BB6EBA50F09D100F01AF89E
:101E5C000A4C0B4B00261D1BB6EBA50F05D170BD14
:101E6C0054F8043B98470136EDE754F8043B984787
:101E7C000136F1E7541F0008541F0008541F0008D6
:101E8C00581F0008F8B500BFF8BC08BC9E46704748
:0C1E9C00F8B500BFF8BC08BC9E467047BB
:101EA800120000002400000036000000400000007E
:101EB800060000000C0000001000000000000000F8
:101EC800010000000200000003000000A0860100DD
:101ED800400D0300801A060000350C0040420F0038
:101EE80080841E0000093D0000127A000024F400DE
:101EF80000366E010048E801006CDC0200000000BA
:101F080000000000000000000000000001000000C8
:101F180003000000050000000100000001000000AF
:101F2800060000000A000000200000000200000077
:101F3800040000000800000010000000400000003D
:0C1F48008000000000010000000200000A
:041F5400650100081B
:041F58003D0100083F
:0C1F5C00010000001000000000093D0022
:0400000508001DDDF5
:00000001FF
